{
  "_format": "hh-sol-artifact-1",
  "contractName": "StorePower",
  "sourceName": "contracts/StorePower.sol",
  "abi": [
    {
      "inputs": [
        {
          "internalType": "uint256",
          "name": "_date",
          "type": "uint256"
        },
        {
          "internalType": "uint256",
          "name": "_location",
          "type": "uint256"
        }
      ],
      "name": "getA",
      "outputs": [
        {
          "internalType": "uint256",
          "name": "",
          "type": "uint256"
        }
      ],
      "stateMutability": "view",
      "type": "function"
    },
    {
      "inputs": [
        {
          "internalType": "uint256",
          "name": "_date",
          "type": "uint256"
        },
        {
          "internalType": "uint256",
          "name": "_location",
          "type": "uint256"
        }
      ],
      "name": "getKWH",
      "outputs": [
        {
          "internalType": "uint256",
          "name": "",
          "type": "uint256"
        }
      ],
      "stateMutability": "view",
      "type": "function"
    },
    {
      "inputs": [
        {
          "internalType": "uint256",
          "name": "_date",
          "type": "uint256"
        },
        {
          "internalType": "uint256",
          "name": "_location",
          "type": "uint256"
        }
      ],
      "name": "getPF",
      "outputs": [
        {
          "internalType": "uint256",
          "name": "",
          "type": "uint256"
        }
      ],
      "stateMutability": "view",
      "type": "function"
    },
    {
      "inputs": [
        {
          "internalType": "uint256",
          "name": "",
          "type": "uint256"
        },
        {
          "internalType": "uint256",
          "name": "",
          "type": "uint256"
        }
      ],
      "name": "truckA",
      "outputs": [
        {
          "internalType": "uint256",
          "name": "",
          "type": "uint256"
        }
      ],
      "stateMutability": "view",
      "type": "function"
    },
    {
      "inputs": [
        {
          "internalType": "uint256",
          "name": "",
          "type": "uint256"
        },
        {
          "internalType": "uint256",
          "name": "",
          "type": "uint256"
        }
      ],
      "name": "truckKWH",
      "outputs": [
        {
          "internalType": "uint256",
          "name": "",
          "type": "uint256"
        }
      ],
      "stateMutability": "view",
      "type": "function"
    },
    {
      "inputs": [
        {
          "internalType": "uint256",
          "name": "",
          "type": "uint256"
        },
        {
          "internalType": "uint256",
          "name": "",
          "type": "uint256"
        }
      ],
      "name": "truckPF",
      "outputs": [
        {
          "internalType": "uint256",
          "name": "",
          "type": "uint256"
        }
      ],
      "stateMutability": "view",
      "type": "function"
    },
    {
      "inputs": [
        {
          "internalType": "uint256",
          "name": "_date",
          "type": "uint256"
        },
        {
          "internalType": "uint256",
          "name": "_location",
          "type": "uint256"
        },
        {
          "internalType": "uint256",
          "name": "_values",
          "type": "uint256"
        }
      ],
      "name": "uploadA",
      "outputs": [],
      "stateMutability": "nonpayable",
      "type": "function"
    },
    {
      "inputs": [
        {
          "internalType": "uint256",
          "name": "_date",
          "type": "uint256"
        },
        {
          "internalType": "uint256",
          "name": "_location",
          "type": "uint256"
        },
        {
          "internalType": "uint256",
          "name": "_values",
          "type": "uint256"
        }
      ],
      "name": "uploadKWH",
      "outputs": [],
      "stateMutability": "nonpayable",
      "type": "function"
    },
    {
      "inputs": [
        {
          "internalType": "uint256",
          "name": "_date",
          "type": "uint256"
        },
        {
          "internalType": "uint256",
          "name": "_location",
          "type": "uint256"
        },
        {
          "internalType": "uint256",
          "name": "_values",
          "type": "uint256"
        }
      ],
      "name": "uploadPF",
      "outputs": [],
      "stateMutability": "nonpayable",
      "type": "function"
    }
  ],
  "bytecode": "0x608060405234801561001057600080fd5b506104be806100206000396000f3fe608060405234801561001057600080fd5b50600436106100935760003560e01c806375bd5d841161006657806375bd5d8414610144578063812dc03014610174578063a4b6bba4146101a4578063ad042b53146101d4578063f051cbff146101f057610093565b806311647e6614610098578063183d3d96146100c85780633550bf94146100f85780635ebcc3ae14610128575b600080fd5b6100b260048036038101906100ad91906103cb565b61020c565b6040516100bf919061041a565b60405180910390f35b6100e260048036038101906100dd91906103cb565b61023b565b6040516100ef919061041a565b60405180910390f35b610112600480360381019061010d91906103cb565b610260565b60405161011f919061041a565b60405180910390f35b610142600480360381019061013d9190610435565b61028f565b005b61015e600480360381019061015991906103cb565b6102bd565b60405161016b919061041a565b60405180910390f35b61018e600480360381019061018991906103cb565b6102e2565b60405161019b919061041a565b60405180910390f35b6101be60048036038101906101b991906103cb565b610310565b6040516101cb919061041a565b60405180910390f35b6101ee60048036038101906101e99190610435565b610335565b005b61020a60048036038101906102059190610435565b610363565b005b600060016000848152602001908152602001600020600083815260200190815260200160002054905092915050565b6000602052816000526040600020602052806000526040600020600091509150505481565b600060026000848152602001908152602001600020600083815260200190815260200160002054905092915050565b8060016000858152602001908152602001600020600084815260200190815260200160002081905550505050565b6001602052816000526040600020602052806000526040600020600091509150505481565b6000806000848152602001908152602001600020600083815260200190815260200160002054905092915050565b6002602052816000526040600020602052806000526040600020600091509150505481565b8060026000858152602001908152602001600020600084815260200190815260200160002081905550505050565b80600080858152602001908152602001600020600084815260200190815260200160002081905550505050565b600080fd5b6000819050919050565b6103a881610395565b81146103b357600080fd5b50565b6000813590506103c58161039f565b92915050565b600080604083850312156103e2576103e1610390565b5b60006103f0858286016103b6565b9250506020610401858286016103b6565b9150509250929050565b61041481610395565b82525050565b600060208201905061042f600083018461040b565b92915050565b60008060006060848603121561044e5761044d610390565b5b600061045c868287016103b6565b935050602061046d868287016103b6565b925050604061047e868287016103b6565b915050925092509256fea264697066735822122034b46c5a9633da51c72c5178c634d9bccb5dd7b7652e9f8e9a34b7edc7720cca64736f6c63430008120033",
  "linkReferences": {},
  "deployedLinkReferences": {}
}